:020000040800F2
:1000000000040020470100085501000857010008BE
:10001000590100085B0100085D01000800000000B4
:100020000000000000000000000000005F01000868
:100030006101000800000000630100082131000890
:1000400067010008670100086701000867010008F0
:100050006701000867010008071400084D14000834
:100060007114000895140008B9140008D90D00088F
:10007000B90E000867010008650F00086701000855
:1000800067010008151000086701000867010008F3
:10009000670100086701000867010008DD14000817
:1000A0006701000867010008670100086701000890
:1000B0006701000867010008670100086701000880
:1000C0006701000867010008670100086701000870
:1000D00067010008314200083D430008670100083D
:1000E000151400086701000867010008670100088F
:1000F0006701000867010008E93600086701000889
:10010000670100086701000867010008670100082F
:10011000670100086701000867010008670100081F
:10012000670100086701000867010008670100080F
:10013000DFF80CD000F03AFC0048004715570008E3
:1001400048220020704708488047084981F3088802
:1001500007480047FEE7FEE7FEE7FEE7FEE7FEE7AB
:10016000FEE7FEE7FEE7FEE7450100084822002023
:100170003101000840EA01039B0703D009E008C9E8
:10018000121F08C0042AFAD203E011F8013B00F85C
:10019000013B521EF9D2704710B5002200E0521CFC
:1001A000835C8C5CA34201D1002BF8D1D8B2E1B2C0
:1001B000401A10BDF0B480EA0102D40F4200B2EB45
:1001C000410F02D20246084611464A0042D0C30DF2
:1001D000DDB2C1F3C752AD1A202D35DAC1F31601D5
:1001E00041F4000204B15242C5F1200602FA06F1C0
:1001F0002A411044B3EBD05F23D0C4B1012DA0EB52
:10020000C35009DCF0BC4FF0004202EAC352DBB23B
:1002100000F5000000F0B7BA400000F1807000EB7C
:10022000C350A0F1807040EAD170490009E049084C
:1002300041EAC071A0EBC35000F50000400800EB9C
:10024000C350F0BC00F096BA6142012202EB4101BA
:10025000001BF6E7F0BC704781F00041AAE780F090
:100260000040A7E780EA010210B502F00043400019
:1002700022D04A001FD0010E01EB1261C0F35600DC
:10028000C2F3560240F4000042F40002A0FB022038
:1002900000047F39140400D0401C50EA124001D4FD
:1002A0004000491EC2B20C0604EBD010401C4008AE
:1002B000802A02D003E0002010BD20F001000029B8
:1002C00000DA0020184310BD30B480EA010202F0C9
:1002D000004530F0004221F0004013D090B1C30D32
:1002E000D40DC2F31601C0F31600E41A41F4000164
:1002F00040F400027D34914201D3641C00E04900C7
:10030000002C02DA30BC002070474FF400000023BC
:10031000914201D3891A034340084FEA4101F7D1C2
:1003200051B1914202D14FF0004105E002D24FF0AD
:10033000010101E06FF0010103EBC450284430BC1F
:1003400000F018BA2DE9FE4F804681EA0300C00F85
:100350000C46009021F0004123F00045B8EB02006C
:10036000A94105D24046214690461C460B4602460E
:1003700023F00040104347D0270DC7F30A00C3F312
:100380000A510290401A019040286BDAC3F313001F
:1003900040F4801B0098924620B10023D2EB030A60
:1003A00063EB0B0B01985946C0F14002504600F038
:1003B000C0F906460D4650465946019A00F0C8F964
:1003C00010EB08006141002487EA115284EAE773C8
:1003D0001A4340D0009A62B3019A012A4FEA0752A9
:1003E00015DC001B61EB02014FF0004202EA0752EC
:1003F000CDE90042001C41F5801132462B4600F049
:10040000FDF903B0BDE8F08F40462146F9E7001B37
:1004100061EB0201001C41F5801300185B412018BC
:10042000A2F5001747EB030140EAD570B6196D41FC
:1004300011E06D084FEA360645EAC0754FEA0752EB
:10044000001B61EB0201001C41F5801149084FEAD5
:1004500030000019514132462B4603B0BDE8F04F41
:1004600000F0BFB90098012240000023D0EB020247
:1004700063EBE073009821464FEAE074B8EB0000AC
:1004800061EB0401E9E783F000435BE781F00041A1
:1004900058E72DE9F04D81EA030404F0004B21F008
:1004A000004514464FF0000A23F0004150EA0502CF
:1004B00020D054EA01021DD0C5F30A570246C5F305
:1004C0001303C1F31300C1F30A5640F4801543F43B
:1004D0008013A7EB0608101BD64608F2FD3873EB15
:1004E000050002D308F1010801E092185B41B8F160
:1004F000000F03DA00200146BDE8F08D00204FF424
:100500008011064684460EE0171B73EB050705D3E2
:10051000121B63EB050306434CEA010C49084FEA42
:10052000300092185B4150EA0107EDD152EA030016
:1005300012D082EA040083EA0501084305D0101BAB
:10054000AB4106D20122002306E000224FF0004317
:1005500002E06FF0010253101AEB06004CEB085159
:1005600010EB0A0041EB0B01BDE8F04D00F039B98A
:10057000C10F80EAE0700844CA079623002100F00A
:1005800002B90EB540F2334102910021CDE90011CC
:100590000A460B4600F032F903B000BD00F00042FD
:1005A00020F00040C10DC0F3160040F400007F2988
:1005B00001DA00207047962903DCC1F19601C8409A
:1005C00001E096398840002AF4D04042704700F09C
:1005D000004230F000400AD0C10D01F56071C0F357
:1005E000160042EA0151C20840071143704700203B
:1005F0000146704730B5002904DB4FF0004440420B
:1006000064EB0101002B04DB4FF00044524264EB29
:1006100003038B4208BF824230BD000030B5002981
:1006200004DB4FF00044404264EB0101002B04DB8B
:100630004FF00044524264EB0303994208BF9042DA
:1006400030BD000001F0004330B421F0004150EA19
:10065000010206D00A0DA2F56072C1F31301002A4F
:1006600002DC30BC00207047440F44EAC104C100E2
:10067000E01830BC00EBC25000F07CB8002801DB71
:10068000C0F10040002901DBC1F100418142704707
:10069000002801DBC0F10040002901DBC1F100416D
:1006A0008842704730B50B460146002020220124C5
:1006B00009E021FA02F59D4205D303FA02F5491B30
:1006C00004FA02F52844151EA2F10102F1DC30BD46
:1006D0002DE9F05F0546002092469B468846064677
:1006E000814640241BE0284641464746224600F00A
:1006F0006FF953465A46C01A914110D31146184615
:10070000224600F016F82D1A67EB01084F462246E4
:100710000120002100F00DF817EB00094E41201ECA
:10072000A4F10104DFDC484631462A464346BDE8D1
:10073000F09F202A04DB203A00FA02F100207047E3
:100740009140C2F1200320FA03F31943904070470F
:10075000202A06DBCB17203A41FA02F043EAE07385
:1007600006E041FA02F3D040C2F120029140084372
:10077000194670470029A8BF7047401C490008BFB0
:1007800020F00100704710B4B0FA80FC00FA0CF0C1
:1007900050EA010404BF10BC704749B1CCF12004F9
:1007A00021FA04F411FA0CF118BF01212143084386
:1007B000A3EB0C01CB1D4FEA00614FEA102042BFB2
:1007C000002010BC704700EBC35010440029A4BFA8
:1007D00010BC7047401C490008BF20F0010010BC4D
:1007E000704710B5002B08DA401C41F10001921847
:1007F0005B411A4301D120F0010010BD2DE9F04DFD
:1008000092469B4611B1B1FA81F202E0B0FA80F251
:1008100020329046FFF78DFF04460F4640EA0A005B
:1008200041EA0B0153465A46084313D0114653EA96
:10083000010019D0C8F14002504600F0C9F8054641
:100840000E46504659464246FFF773FF084305D00F
:10085000012004E020463946BDE8F08D0020054324
:1008600046EAE0762C4337430A986305E40AA0EB96
:1008700008000022FD0A44EA47540A3002D500204D
:100880000146E9E7010510196941DDE9084500194C
:100890006941BDE8F04DA4E72DE9FE4F81EA03046C
:1008A00004F0004421F0004100944FF0000B23F0CD
:1008B000004350EA01045ED052EA03045BD0C3F364
:1008C0000A54C1F30A552C44A4F2F3340194A0FB5A
:1008D0000254C1F3130141F48011C3F3130343F431
:1008E000801301FB024400FB034E840A970A44EA8A
:1008F000815447EA8357A4FB076802958D0A05FBDC
:1009000007854FEA932C04FB0C542705029D4FEA00
:10091000065847EA1637B5EB08056EEB070C870E4D
:10092000920E47EA811742EA8312A7FB0201B6EB57
:100930000B0164EB00042B0D43EA0C335E1844EB0F
:100940001C50DA465146E7FB0201C5F313044FEA97
:100950000B3343EA14534FEA0432019C43EA060383
:10096000A4F10C040294009CCDE900B4FFF746FF0B
:1009700003B0BDE8F08F00200146F9E7C1F30A5249
:10098000C1F3130140F2FF3341F480119A4202DABD
:1009900000200146704740F233439A42A2F23342AC
:1009A00002DC524200F014B8FFF7C3BE064C074DFC
:1009B00006E0E06840F0010394E80700984710342F
:1009C000AC42F6D3FFF7B8FB585E0008785E00082B
:1009D000202A04DB203A21FA02F00021704721FA94
:1009E00002F3D040C2F120029140084319467047FB
:1009F00000B585B00121480201F0D6FE0121880230
:100A000001F0D2FE5A4800F0EBF84FF4C0200090FD
:100A100001208DF8040000208DF805004FF480209F
:100A200002900020039006208DF81000694650487F
:100A300000F024F94F4800F0D3F84FF4C0200090A4
:100A400001208DF8040000208DF805004FF480206F
:100A500002900020039006208DF81000694645485A
:100A600000F00CF9012000F0A5F906230122102165
:100A70003F4800F039F90623022210213C4800F0DB
:100A800033F9062303221021394800F02DF90623FB
:100A900004221121364800F027F9062305221121EE
:100AA000334800F021F906231A461121304800F09E
:100AB0001BF9062301220A212E4800F015F906230E
:100AC00002220A212B4800F00FF9062303220A21F3
:100AD000284800F009F9062304220B21254800F0DC
:100AE00003F9062305220B21224800F0FDF8062316
:100AF0001A460B211F4800F0F7F801211C4800F0AE
:100B000063F801211A4800F037F80121194800F074
:100B100033F80121164800F091F80121154800F042
:100B20008DF8134800F03CF900BF114800F09BF825
:100B30000028FAD10E4800F038F900BF0C4800F048
:100B400088F80028FAD10B4800F02AF900BF0948BC
:100B500000F089F80028FAD1064800F026F900BF15
:100B6000044800F076F80028FAD105B000BD000076
:100B7000002401400028014021B1826842F00102B6
:100B8000826003E0826822F0010282607047000008
:100B900010B500F09BF8FFF72BFF03A003F064FDF6
:100BA00003F0F4F810BD0000496E697469616C6966
:100BB0007A696E6720414443315F32202E2E2E2009
:100BC000446F6E650A00000021B1826842F48072B1
:100BD000826003E0826822F48072826070470000C5
:100BE00010B504461248844208D10121401501F095
:100BF000EBFD0021601501F0E7FD17E00D48844290
:100C000008D10121001501F0DFFD0021201501F0C0
:100C1000DBFD0BE00848844208D10121C80301F044
:100C2000D3FD00214FF4004001F0CEFD10BD0000C7
:100C30000024014000280140003C014021B18268AD
:100C400042F48012826003E0826822F480128260A3
:100C50007047014600208A6802F004020AB10120B0
:100C600000E000207047014600208A6802F0080278
:100C70000AB1012000E000207047000030B50246B4
:100C80000020002350680F4C20400D790C6844EA86
:100C900005242043506090680B4C2040D1E9025459
:100CA0002C434D7944EA450420439060D06A20F4F7
:100CB00070000C7C641EE4B2234340EA0350D0620F
:100CC00030BD0000FFFEF0FFFDF7F1FF08B5032087
:100CD000ADF8000000208DF803006946014800F0DF
:100CE000ABFE08BD00100140F0B504460D460020E3
:100CF0000021092D11DDE068A5F10A0606EB460783
:100D0000072606FA07F18843A5F10A0606EB460610
:100D100003FA06F10843E0600CE0206905EB4507A3
:100D2000072606FA07F1884305EB450603FA06F1A4
:100D300008432061072A0FDA606B561E06EB860710
:100D40001F2606FA07F18843561E06EB860605FAAB
:100D500006F10843606322E00D2A0FDA206BD61FEC
:100D600006EB86071F2606FA07F18843D61F06EB17
:100D7000860605FA06F10843206310E0E06AA2F156
:100D80000D0606EB86071F2606FA07F18843A2F137
:100D90000D0606EB860605FA06F10843E062F0BD93
:100DA000816841F0080181607047816841F0040169
:100DB0008160704730B10749096841F40001054A74
:100DC000116005E00349096821F40001014A11603E
:100DD000704700000824014010B5022000F0D6FA48
:100DE00000285DD0002410E02E4830F82400C0F325
:100DF0000B002D4941F824002A4850F82400C0F384
:100E00000B4001EB84018861641C062CECD326485E
:100E10000068254949680844234989680844032132
:100E2000B0FBF1F0214908601F48C0681E490969FC
:100E300008441D49496908440321B0FBF1F01B49EE
:100E40004860194880691849C96908441649096AFF
:100E500008440321B0FBF1F0144988601248406A4D
:100E60001149896A08441049C96A08440321B0FB42
:100E7000F1F00E49C86001200D490860022000F021
:100E800029F90C48806820F001000A49886005486B
:100E900048610620C8600846806840F0010088600C
:100EA00010BD0000D8000020841B0020F0000020AE
:100EB000180000200000024010B5012022490870EF
:100EC0002248008822490988884239D000202149D7
:100ED00008801BE020481D490988405C1F491D4AC5
:100EE0001288885419480088401CC82190FBF1F2F0
:100EF00001FB12001549088016480088401C15495E
:100F0000088008460088C82800DB05E00F480088F4
:100F10000F4909888842DDD100BF1148C06920F01F
:100F200001000F49C8610D4888620A4800880862BC
:100F30000846C06940F00100C861002002490870FD
:100F4000202000F0C7F810BD6200002066000020DD
:100F50006400002060000020240E0020160D0020F8
:100F60000000024010B50120234908702348008882
:100F700023490988884239D00020224908801BE093
:100F800021481E490988405C20491E4A128888541D
:100F90001A480088401CC82190FBF1F201FB1200A6
:100FA0001649088017480088401C164908800846E2
:100FB0000088C82800DB05E010480088104909882F
:100FC0008842DDD100BF1248406C20F0010010497A
:100FD00048640E4808650B48008888640846406CE1
:100FE00040F0010048640020034908704FF40050AD
:100FF00000F070F810BD00003E000020420000200C
:10100000400000203C000020DA030020F402002011
:101010000000024010B501202749087027480088C9
:1010200027490988884241D00020264908801DE0D0
:10103000254822490988405C2449224A128888545C
:101040001E480088401C4FF4FA7190FBF1F201FB3E
:1010500012001A4908801B480088401C1949088062
:1010600008460088B0F5FA7F00DB05E013480088E9
:10107000134909888842DBD100BF1548006820F079
:10108000010013498039C1F880001048C1F88C0074
:101090000C480088C1F884000846D0F8800040F071
:1010A00001000B4908600020034908704FF00070F0
:1010B00000F010F810BD000054000020580000207F
:1010C0005600002052000020500A00203E08002058
:1010D0008000024000F0805111B10349086001E036
:1010E00002494860704700000404024000000240CA
:1010F00021B1026842F00102026003E0026822F0BE
:10110000010202607047000000B58BB00121084663
:1011100001F01AFB3B4800F093F83B4800903B4835
:10112000019000200290062003900020049080206F
:1011300005908000069080000790002008904FF4F2
:101140004050099000200A9069462E4800F03DF971
:1011500001212C48FFF7CCFF01220221294800F091
:101160002BF928483C3000F06BF8294800902948BA
:10117000019010200290C82003900020049080204D
:10118000059000200690079008904FF400500990B9
:1011900000200A9069461B483C3000F016F90122F5
:1011A000022118483C3000F007F91648783000F06A
:1011B00047F81948009019480190102002904FF408
:1011C000FA70039000200490802005900020069083
:1011D000079008904FF40050099000200A9069464B
:1011E0000848783000F0F1F80122022105487830F3
:1011F00000F0E2F80AA003F037FA02F0C7FD0BB0E6
:1012000000BD0000080002404C240140D80000202E
:1012100004380140F4020020044400403E0800204D
:10122000496E697469616C697A696E6720444D41E1
:10123000202E2E2E20446F6E652E0D0A0000000019
:10124000016821F0010101600021016041608160BD
:10125000C1604C49884208D14A490839496841F07F
:101260000F01484A083A51608AE0464914318842E1
:1012700008D144490839496841F0F001414A083A27
:1012800051607DE03F492831884208D13D49083905
:10129000496841F470613B4A083A516070E039494D
:1012A0003C31884208D137490839496841F47041D6
:1012B000344A083A516063E032495031884208D1DB
:1012C00030490839496841F470212E4A083A516082
:1012D00056E02C496431884208D12A4908394968C6
:1012E00041F47001274A083A516049E025497831B4
:1012F000884208D123490839496841F07061214A80
:10130000083A51603CE02049884206D1011F096833
:1013100041F00F01021F116032E01B491431884275
:1013200008D11949091F096841F0F001164A121F36
:10133000116025E014492831884208D11249091F5B
:10134000096841F47061104A121F116018E00E49DB
:101350003C31884208D10C49091F096841F47041A9
:10136000094A121F11600BE007495031884207D12A
:101370000549091F096841F47021034A121F1160D1
:1013800070470000080002400804024001460020A7
:10139000002201F0805313B1054B1A6801E0054BA0
:1013A0001A6802EA01030BB1012000E00020704737
:1013B00000040240000002401AB103680B430360BE
:1013C00002E003688B430360704710B50022026897
:1013D00047F6F0739A430C6A8B6823430C692343E6
:1013E0004C6923438C692343CC6923434C6A2343D0
:1013F0008C6A23431A430260CB6843600B688360A6
:101400004B68C36010BD10B500F018FD012000F05E
:10141000CBF810BD10B54FF4005000F021F948B1E1
:1014200006A003F021F9012004F0CCFB4FF400509A
:1014300000F0BAF802F0C0FC10BD00004554313392
:101440005F4952512E2E2E0D0A00000010B504A047
:1014500003F00AF902F0B0FC022000F0A5F810BD7C
:101460004554315F4952512E2E2E0D0A00000000C6
:1014700010B504A003F0F8F802F09EFC042000F080
:1014800093F810BD4554325F4952512E2E2E0D0A4D
:101490000000000010B504A003F0E6F802F08CFC98
:1014A000082000F081F810BD4554335F4952512E99
:1014B0002E2E0D0A0000000010B504A003F0D4F891
:1014C00002F07AFC102000F06FF810BD4554345F34
:1014D0004952512E2E2E0D0A0000000010B520207A
:1014E00000F0BEF830B11CA003F0BEF8202000F0E0
:1014F0005BF82EE0402000F0B3F830B11AA003F002
:10150000B3F8402000F050F823E0802000F0A8F865
:1015100030B119A003F0A8F8802000F045F818E0D9
:101520004FF4807000F09CF838B117A003F09CF8DD
:101530004FF4807000F038F80BE04FF4007000F0CA
:101540008FF830B114A003F08FF84FF4007000F062
:101550002BF802F031FC10BD4554355F4952512E35
:101560002E2E0D0A000000004554365F4952512EC0
:101570002E2E0D0A000000004554375F4952512EAF
:101580002E2E0D0A000000004554385F4952512E9E
:101590002E2E0D0A000000004554395F4952512E8D
:1015A0002E2E0D0A0000000001490860704700005F
:1015B000140401400EB50120ADF8080004208DF898
:1015C0000B0002A91C4800F037FA4FF40050ADF8A8
:1015D000080004208DF80B0002A9184800F02CFA2E
:1015E0000021084600F008FA0120009000208DF844
:1015F00004000C208DF8050001208DF806006846D7
:1016000000F042F80D21022000F0F6F94FF40050EE
:10161000009000208DF804000C208DF805000120BA
:101620008DF80600684600F02FF805A003F01CF8BE
:1016300002F0ACFB0EBD00000008014000100140AC
:10164000496E697469616C697A696E67204558549E
:1016500049202E2E2E20446F6E652E0D0A000000AC
:10166000014600200022074B1B6803EA0102054BDC
:1016700014331B680B4013B10AB1012000E00020B5
:101680007047000000040140002123498279002AAC
:101690003AD00A46126803689A430B461A600A1D3C
:1016A000126803689A430B1D1A60027911440A6894
:1016B00003681A430A60184A0832126803689A439A
:1016C000154B08331A601A1D126803689A43124BAF
:1016D0000C331A604279102A0ED11A1F126803685F
:1016E0001A430D4B08331A601A1D126803681A4317
:1016F000094B0C331A600DE00749427911440A681E
:1017000003681A430A6005E0027911440A68036815
:101710009A430A6070470000000401400149C86014
:10172000704700000020024070B50546042440F6D2
:10173000FF7000F0A5F80446042C19D10D4800698B
:1017400040F002000B49086108464561006940F01D
:101750004000086140F6FF7000F092F80446052C46
:1017600006D00448006941F6FD710840014908614E
:10177000204670BD0020024004200B49C96801F0DA
:10178000010109B101200EE00749C96801F0040117
:1017900009B1022007E00449C96801F0100109B14C
:1017A000032000E004207047002002400348006945
:1017B00040F08000014908617047000000200240AD
:1017C0000549096821F01001034A116011460968B2
:1017D000014311607047000000200240F8B5064642
:1017E0000D460424002000900F2000F049F8044624
:1017F000042C28D11548006940F001001349086104
:1018000035800F2000F03CF80446042C12D1B01CA7
:101810000090280C009908800F2000F031F8044651
:10182000052C10D00948006941F6FE7108400749AF
:10183000086108E0052C06D00448006941F6FE71F5
:101840000840024908612046F8BD0000002002401F
:1018500001460020034A106800F038000843106079
:1018600070470000002002400248034948600348D6
:10187000486070472301674500200240AB89EFCDE7
:1018800070B504460425FFF777FF054605E003F031
:1018900077FEFFF771FF0546641E012D01D1002C74
:1018A000F5D104B90525284670BD01460868704782
:1018B0002DE9F04106460F464FF0000834463D46FC
:1018C000FFF7D2FF3520FFF729FF3046FFF72CFF47
:1018D00000BF12E020462968FFF780FF20682968D2
:1018E000884206D008A002F0BFFE02F065FABDE80B
:1018F000F081241D2D1D08F10408B8F5006FE9D30F
:10190000FFF754FF00BFF2E7466C617368207772FF
:10191000697465206572726F722C207265747572BD
:101920006E2E0D0A0000000008B50121254800F0C8
:101930000FF91221244800F045F91220ADF80000FB
:1019400003208DF8020014208DF8030069461E481C
:1019500000F072F83C20ADF8000003208DF8020082
:1019600010208DF803006946184800F065F804213E
:10197000174800F025F90420ADF8000003208DF889
:10198000020010208DF803006946114800F054F859
:101990004FF440710F4800F013F94FF44070ADF868
:1019A000000003208DF8020014208DF80300694622
:1019B000084800F041F808A002F056FE02F0E6F9EF
:1019C00008BD000000043000000801400010014084
:1019D00000140140000C0140496E697469616C6932
:1019E0007A696E67204750494F202E2E2E20446F73
:1019F0006E652E0D0A00000030B500228B071C0F0B
:101A00000F2303FA04F20B4B8C1053F8243093434A
:101A1000084C8D1044F8253023468C1053F82430A0
:101A20008C07240F00FA04F42343024C8D1044F871
:101A3000253030BD080001402DE9F0410246002567
:101A40000026002000230024002791F803C00CF09A
:101A50000F0591F803C00CF0100CBCF1000F03D07F
:101A600091F802C04CEA050591F800C0BCF1000FE6
:101A700031D0146800202BE04FF0010C0CFA00F379
:101A8000B1F800C00CEA03069E4220D183004FF05B
:101A90000F0C0CFA03F7BC4305FA03FC4CEA0404F0
:101AA00091F803C0BCF1280F06D14FF0010C0CFADD
:101AB00000FCC2F814C00AE091F803C0BCF1480F62
:101AC00005D14FF0010C0CFA00FCC2F810C0401C0C
:101AD0000828D1D31460B1F800C0BCF1FF0F34DD89
:101AE000546800202EE000F1080C4FF0010808FABD
:101AF0000CF3B1F800C00CEA03069E4221D183002A
:101B00004FF00F0C0CFA03F7BC4305FA03FC4CEA48
:101B1000040491F803C0BCF1280F05D100F1080CB2
:101B200008FA0CF8C2F8148091F803C0BCF1480F11
:101B300007D100F1080C4FF0010808FA0CF8C2F8C0
:101B40001080401C0828CED35460BDE8F08100000E
:101B5000F0B50A460023002400210025174E7168C5
:101B6000C0F3034583B200F44016B6F5401F08D118
:101B700021F07061114E766826F070660F4F7E601E
:101B800012E000F48016B6F5801F06D1032606FA8F
:101B900005F4A14341F0706106E0460D360103FAF9
:101BA00006F6B14341F0706122B1460D360103FAE9
:101BB00006F63143014E7160F0BD000000000140A7
:101BC0004161704701617047704710B501464FF49D
:101BD000A570484340F6FF7490FBF4F2C2F18F0009
:101BE0004FF47A7460432B2490FBF4F000F6C41396
:101BF00098B210BD0FB5BDF800002549254A1288DE
:101C000001EB02110880BDF802002149214A128827
:101C100001EB02114880BDF804001D491D4A1288DD
:101C200001EB021188801A481A49098800EB01105B
:101C3000DDE90212C0E90212BDF814101648154A77
:101C4000128800EB02100180BDF816101248114AEC
:101C5000128800EB02104180BDF818000E490D4AB1
:101C6000128801EB021188800B480A49098800EBB1
:101C70000110DDE90712C0E9021206480088401C85
:101C80000A2190FBF1F201FB1200024908800FBD0E
:101C9000041D0020B8000020A41D002070B5002401
:101CA00000260025A5201A4908705A2048700846C9
:101CB000C078401DC5B200BF05E01548005D304446
:101CC000C6B2601CC4B2AC42F7DB114846550024D2
:101CD00012E00F48005D0F490F4A128888540E48E1
:101CE0000088401C4FF4FA7190FBF1F201FB1200E6
:101CF00009490880601CC4B2681C8442E9DB0748BB
:101D00000078012801D1FFF785F9012070BD00009E
:101D1000320A0020500A0020560000205400002003
:101D200010B501F063FA00F05FFD02F099FA03F0DC
:101D3000DDFE02F00DFAFFF7F7FDFFF7E5F9FFF71B
:101D400039FCFEF725FF01F00BFB01F061FB01F010
:101D500057FC01F0E7FB00F013FF00F00DFB01F072
:101D600091F900F0B1FB10BD2DE9F05F04460E467D
:101D700000212068FEF782FC02D83046BDE8F09FC3
:101D8000A168E069FEF76EFA81466168A069FEF716
:101D900069FA82463146FEF762FA80464946FEF706
:101DA0005BFA0546284620F00041C1F1FF41C90F0A
:101DB00049B900BF4FF07F41B1EB400F01D1012184
:101DC00000E0002101B135466169E069FEF74AFA99
:101DD00081462169A069FEF745FA82462846E168F6
:101DE000FEF740FA83465146FEF7E4F9804649463D
:101DF000FEF7E0F90746A069E061A5613846BDE756
:101E000070B506460C4615464FF480500A490860E6
:101E100046F0800000F02EFF06E0FF2000F02AFFD1
:101E20002070641C681EC5B2002DF6DC4FF4805093
:101E30000149091F086070BD140C01402DE9F04FE5
:101E40008BB009A803F02AFC0E22A4493B20FFF71F
:101E5000D7FFA2484078A149097800EB012004B2DD
:101E60009E48C0789D49897800EB012006B29B48C6
:101E700040799A49097900EB012007B297488079A7
:101E8000974908709548C07948709448407A9349BA
:101E9000097A00EB012005B29048C07A8F49897A0F
:101EA00000EB01200FFA80F88C48407B8B49097BBE
:101EB00000EB01200FFA80F90A98FEF762FB00227E
:101EC000884BCDE90001FEF7E4FACDE90201FEF707
:101ED000B9FB0590FEF77BFB02460B46CDE9048972
:101EE0008DE8D0000395CDE906017FA002F0BCFB90
:101EF00001F062FF8848A0F8008015F5004F02D17C
:101F000047F6FF7000E0684200B283494880084607
:101F1000A0F80490099888607F480A99C16001463A
:101F2000B1F90000FEF724FB05907C484168059854
:101F3000FEF792F90690794801680698FEF792F943
:101F40000790764801690798FEF78CF98246724936
:101F5000B1F90200FEF70CFB059070488168059806
:101F6000FEF77AF906906D4801680698FEF77AF94F
:101F700007906A4841690798FEF774F983466649F5
:101F8000B1F90400FEF7F4FA05906448C1680598B9
:101F9000FEF762F90690614801680698FEF762F95B
:101FA00007905E4881690798FEF75CF908905146F2
:101FB0005B48FFF7D9FE5B49086059465A48FFF76E
:101FC000D3FE5849486059480899FFF7CDFE554956
:101FD00088600998C86053480A990161544806808E
:101FE00014F5004F02D147F6FF7000E0604200B2E6
:101FF0004F49488008468780099888604C480A996C
:10200000C1600146B1F90000FEF7B2FA05904948F7
:1020100041680598FEF720F9069046480168069841
:10202000FEF720F90790434801690798FEF71AF96F
:1020300082463F49B1F90200FEF79AFA05903D4801
:1020400081680598FEF708F906903A4801680698F5
:10205000FEF708F90790374841690798FEF702F93B
:1020600083463349B1F90400FEF782FA05903148FE
:10207000C1680598FEF7F0F806902E4801680698AA
:10208000FEF7F0F807902B4881690798FEF7EAF809
:10209000089051462848FFF767FE284908605946CE
:1020A0002748FFF761FE2549486026480899FFF751
:1020B0005BFE224988600998C86020480A9901613E
:1020C0002148007838B11A4B0FCB8DE80F00124829
:1020D0000FC8FFF78FFD0BB0BDE8F08FB41B0020D9
:1020E000B600002000408F402566206D732C2061D3
:1020F0006363656C3D2025642C2025642C202564B9
:102100002C206779726F203D2025642C2025642CBB
:10211000202564200D0A0000801C0020641C002083
:10212000A41C0020901C0020C41C0020E41C0020E3
:10213000E01B0020C41B0020041C0020F01B00201A
:10214000241C0020441C0020BC0000201CB50020E2
:10215000414908604860414888604148C86041483A
:1021600008610020086200213B4841623E483A4A2B
:10217000C2E906103D483E4900231A46CDE9001049
:102180003C493D4803F0B6FA3848394900231A461D
:10219000CDE90010374938483C3003F0ABFA002451
:1021A00056E0002004EBC401344A02EB41014880B0
:1021B00004EBC40122F8110004EBC40102EB41015D
:1021C0008880072004EBC40102EB4101C88004EBC6
:1021D000C40102EB410108814FF4967004EBC40185
:1021E00002EB410188814FF6D46004EBC40102EB9D
:1021F00041014881142004EBC40102EB4101C88174
:10220000012004EBC40102EB410108740020C4EB7F
:102210000411194A143A42F82100C4EB041102EBEC
:1022200081014860C4EB041102EB81010881C4EB19
:10223000041102EB81014881C4EB041102EB81011E
:102240008881C4EB041102EB81010861601CC4B2F7
:10225000022CA6DB1CBD00005012002066669E41C9
:1022600066669EC1CDCCCC3D00407F40000020C1C1
:10227000000020410000A041B01200207812002090
:102280002DE9FC41684603F009FA4FF08040808C4C
:1022900031494881314801882F48A0F84610304B19
:1022A000B3F904200346B3F84610588900F0C2FD84
:1022B0002C49684603F0A2F9044627480461C46427
:1022C000284900980860019848602749684603F04B
:1022D00065F9054624482038D0E906733A46284671
:1022E000FEF79CF904D200201B490860C86308E08F
:1022F0001D4820380068184908601B48203840688D
:10230000C8632046FEF763F90546184A184BFEF7E6
:1023100085F901D2BDE8FC810F4803F0EFF80E48C3
:102320003C3003F0EBF80C48B0F90810114803F00A
:10233000EDFC0948B0F944100E48123003F0E6FCF9
:102340000C4803F001F80B48123002F0FDFF03F0D7
:102350009DFA00BFDEE700009C1200202408004028
:10236000801C002074000020701200209A99999916
:102370009999C93F7812002010B5FFF7E7FE25496B
:1023800025A003F02DFB29490861294929A003F064
:1023900027FB0446FEF702F900B22A49C881244906
:1023A00024A003F01DFB0446FEF7F8F801B225480F
:1023B00001841F4924A003F013FB27490860002172
:1023C00026A003F00DFB24494860002127A003F05C
:1023D00007FB21498860294929A003F001FB1E4918
:1023E000C8600846C06880F000400861142229488F
:1023F000FDF7C0FE1422184926483C30FDF7BAFE0E
:1024000004202549086025A002F02EF901F0BEFC49
:1024100010BD0000CDCCCC3D76656C6F63697479DE
:102420005F646561647A6F6E650000005012002081
:102430000000A04170776D5F646561647A6F6E65BE
:10244000000000007812002076656C6F6369747973
:102450005F7069645F7000003812002076656C6FF1
:10246000636974795F7069645F69000076656C6F99
:10247000636974795F7069645F64000000002041E3
:1024800076656C6F636974795F7069645F636C61B2
:102490006D700000B012002010140140496E697484
:1024A00069616C697A696E67204D6F746F72732011
:1024B0002E2E2E20456E61626C65202E2E2E20441D
:1024C0006F6E652E0D0A000008B500214FF0006008
:1024D00000F0D2F84FF4C06000F0B0F825208DF87D
:1024E000000000208DF801008DF8020001208DF819
:1024F0000300684600F06AF826208DF800000020EE
:102500008DF801008DF8020001208DF80300684667
:1025100000F05CF80B208DF8000000208DF8010021
:102520008DF8020001208DF80300684600F04EF897
:102530000E208DF8000000208DF801008DF80200BB
:1025400001208DF80300684600F040F811208DF856
:10255000000000208DF801008DF8020001208DF8A8
:102560000300684600F032F806208DF800000020D5
:102570008DF801008DF8020001208DF803006846F7
:1025800000F024F828208DF8000000208DF80100CC
:102590008DF8020001208DF80300684600F016F85F
:1025A00002A002F061F801F0F1FB08BD496E697408
:1025B00069616C697A696E67204E564943202E2EF8
:1025C0002E20446F6E652E0D0A00000070B50021AC
:1025D00000230F22C47804B3154C246804F4E0648B
:1025E000C4F5E064210AC1F10403CA40447804FA46
:1025F00003F184781440214309010E4C0678A1555B
:10260000047804F01F050124AC4005786D11AD007D
:1026100005F1E025C5F8004109E0047804F01F0544
:102620000124AC40044D0678761145F8264070BD73
:102630000CED00E000E400E080E100E0024901432D
:10264000024A1160704700000000FA050CED00E03E
:1026500010B5002807DA0A07140E054A00F00F0328
:102660001B1FD45403E00A07130E024A135410BD73
:1026700018ED00E000E400E0024A0A400243024B89
:102680001A60704780FFFF1F08ED00E070B500255D
:1026900000242148007821490978884238D01E4812
:1026A0000078C0EB00101E4901EB4000C078401DCF
:1026B000C5B200BF18E018480078C0EB00101849F8
:1026C00001EB4000005D1749174A128888541648EC
:1026D0000088401C4FF4FA7190FBF1F201FB1200EC
:1026E00011490880601CC4B2681C8442E3DB0A48BC
:1026F0000078401C052190FBF1F201FB1200064915
:1027000008700A480078012804D1FEF783FC01E034
:10271000002070BD0120FCE75B0000205A00002073
:10272000440C0020500A00205600002054000020D5
:1027300001460020034A506820F44040084350609E
:10274000704700000010024029B1064A5269024356
:10275000044B5A6104E0034A52698243014B5A61B7
:10276000704700000010024029B1064AD2690243B6
:10277000044BDA6104E0034AD2698243014BDA6117
:10278000704700000010024029B1064A1269024356
:10279000044B1A6104E0034A12698243014B1A6137
:1027A000704700000010024029B1064A92690243B6
:1027B000044B9A6104E0034A92698243014B9A6197
:1027C000704700000010024029B1064AD268024357
:1027D000044BDA6004E0034AD2688243014BDA60BA
:1027E000704700000010024010B500F037F84FF4B9
:1027F000803000F0F5F800F051F90446012C28D1A2
:10280000002000F0E1F8002000F01CF9A00200F028
:102810000DF94FF44040FFF78BFF0220FFF718F847
:102820001020FEF7CDFF4FF4E011200400F01CF95A
:10283000012000F013F900BF392000F09FF80028B4
:10284000FAD0022000F01EF900BF00F0B5F8082809
:10285000FBD101213D20FFF7A7FF10BD0F48006805
:1028600040F001000D490860084640680C490840E6
:102870000A494860084600680A4908400749086054
:102880000846006820F4802008600846406820F46C
:10289000FE0048604FF41F0088607047001002403F
:1028A0000000FFF8FFFFF6FE30B5002100220024F3
:1028B00000232D4D6D6805F00C0121B1042905D0D0
:1028C000082923D105E0294D056022E0274D056048
:1028D0001FE0254D6D6805F47012234D6D6805F4F9
:1028E0008034022505EB92421CB9214D5543056009
:1028F0000BE01D4D6D6805F400351DB11C4D5543B1
:10290000056002E0194D5543056002E0174D056072
:1029100000BF00BF144D6D6805F0F0010909154DA9
:102920006B5C0568DD4045600F4D6D6805F4E06146
:10293000090A104D6B5C4568DD4085600A4D6D6885
:1029400005F46051C90A0B4D6B5C4568DD40C560FC
:10295000054D6D6805F44041890B074D6B5CC568FA
:10296000B5FBF3F5056130BD0010024000127A009E
:1029700000093D00BD000020CD00002010B501463B
:102980000022002300204A11012A02D1094C2368A9
:1029900006E0022A02D1074C236A01E0054C636A73
:1029A00001F01F02012494401C400CB1012000E002
:1029B000002010BD001002400248406800F00C00EA
:1029C000704700000010024001460020034A506892
:1029D00020F0F000084350607047000000100240F3
:1029E0001149096821F480310F4A116011460968C4
:1029F00021F480211160B0F5803F03D0B0F5802F25
:102A00000ED106E00849096841F48031064A116098
:102A100007E00549096841F4A021034A116000E07C
:102A200000BF00BF704700000010024001460020B8
:102A3000034A506820F4E06008435060704700008B
:102A40000010024001460020034A506820F4605004
:102A500040EAC1005060704700100240014908661A
:102A6000704700000000424202460020044B5868B4
:102A700020F47C1042EA01031843014B5860704770
:102A80000010024001460020034A506820F0030075
:102A900008435060704700000010024038B5002025
:102AA00000900024002500BF3120FFF767FF054696
:102AB0000098401C00900098B0F5A06F01D0002D48
:102AC000F2D03120FFF75AFF08B1012400E00024C2
:102AD000204638BD70B5044600252448007840B92A
:102AE000232C06D123202249087001201F49087099
:102AF0003BE01E480078002834DD1C480078202880
:102B000030DA0A2C09D01A48184909784454174871
:102B10000078401C1549087027E0154813490978CA
:102B2000445412480078401C10490870114800783D
:102B3000D8B9002505E00E48405D0F494855681C8E
:102B4000C5B20A4800788542F5DB08480078094993
:102B5000087001200949087002F0FCF900200749BB
:102B6000087002E000200149087070BD4E0000208E
:102B7000FE070020500000201E0800204F0000200B
:102B800008B501218803FFF7EFFD4FF46040ADF871
:102B9000000001208DF8020018208DF8030069461E
:102BA0000F48FEF749FF4FF48050ADF800000320B6
:102BB0008DF8020010208DF8030069460848FEF7E2
:102BC0003BFF4FF48050064910310860002000F0B0
:102BD00017F804A001F048FD01F0D8F808BD000086
:102BE000000C0140496E697469616C697A696E67AD
:102BF0002053504932202E2E2E20446F6E650A003D
:102C000010B586B004464FF4805018490860002182
:102C1000174800F04BF80020ADF804004FF4827024
:102C2000ADF806000020ADF808000220ADF80A005B
:102C30000120ADF80C004002ADF80E002820ADF8E0
:102C400010000020ADF812000720ADF81400012C90
:102C500002D10020ADF8100001A9054800F040F8AD
:102C60000121034800F022F806B010BD100C01400D
:102C70000038004010B5044600BF02210A4800F0A9
:102C800021F80028F9D02146074800F027F800BFB6
:102C90000121054800F016F80028F9D0024800F09C
:102CA0001AF8C0B210BD00000038004021B10288FF
:102CB00042F04002028004E002884FF6BF731A40DF
:102CC000028070470246002013890B400BB101209F
:102CD00000E0002070470146888970478181704775
:102CE00010B50022028802F441520B884C8823431D
:102CF0008C882343CC8823430C8923434C8923436A
:102D00008C892343CC8923431A430280838B4FF25F
:102D1000FF74234083830B8A038210BD70B5054680
:102D20000024002623201C490870422048705320AC
:102D30008870280AC8700D711020487100208871B1
:102D4000C8710A20087200BF05E01348005D3044D6
:102D5000C6B2601CC4B2072CF7DB0F48C671002452
:102D600011E00D48005D0D490D4A128888540C4849
:102D70000088401CC82190FBF1F201FB12000849B9
:102D80000880601CC4B2092CEBDB064800780128DF
:102D900001D1FEF7E7F870BDBC030020DA03002084
:102DA000400000203E0000202DE9F04105460E467F
:102DB0000024002723201B490870422048704B2024
:102DC00088700846C5700671002048710A20887115
:102DD00000BF05E01348005D3844C7B2601CC4B2B0
:102DE000052CF7DB0F484771002411E00D48005D0A
:102DF0000D490E4A128888540C480088401CC8218E
:102E000090FBF1F201FB120008490880601CC4B27B
:102E1000072CEBDB06480078012801D1FEF7A2F869
:102E2000BDE8F081BC030020DA0300204000002050
:102E30003E0000202DE9F04105460E4617460024CD
:102E4000A04623201F490870452048704320887001
:102E5000280AC8700D71300A48718E71380AC8711D
:102E60000F72002048720A20887200BF06E01548E1
:102E7000005D404400F0FF08601CC4B2092CF6DB82
:102E8000104880F80980002411E00E48005D0E49CA
:102E90000E4A128888540D480088401CC82190FBB7
:102EA000F1F201FB120009490880601CC4B20B2C2E
:102EB000EBDB07480078012801D1FEF753F8BDE8A5
:102EC000F0810000BC030020DA0300204000002055
:102ED0003E000020F8B5054600240026009523207A
:102EE0001F49087047204870502088709DF80000E6
:102EF000C8709DF8010008719DF8020048719DF8A6
:102F0000030088710020C8710A20087200BF05E024
:102F10001348005D3044C6B2601CC4B2072CF7DB16
:102F20000F48C671002411E00D48005D0D490E4A9E
:102F3000128888540C480088401CC82190FBF1F28C
:102F400001FB120008490880601CC4B2092CEBDBAD
:102F500006480078012801D1FEF704F8F8BD00000A
:102F6000BC030020DA030020400000203E000020C7
:102F700010B500F001F810BD0CB5002001900090D4
:102F80003448006840F480303249086000BF31485E
:102F9000006800F4003000900198401C01900098F7
:102FA00018B90198B0F5A06FF1D12A48006800F473
:102FB000003010B10120009001E000200090009846
:102FC000012844D12448006840F0100022490860DC
:102FD0000846006820F0030008600846006840F0DA
:102FE000020008601B4840681A494860084640686B
:102FF00048600846406840F4806048600846406881
:1030000020F47C1048600846406840F4E8104860AE
:103010000846006840F08070086000BF0D480068F6
:1030200000F000700028F9D00A48406820F0030042
:10303000084948600846406840F00200486000BF08
:103040000448406800F00C000828F9D101E000BFF6
:10305000FEE70CBD0010024000200240042808D109
:103060004FF0E021096941F004014FF0E0221161C5
:1030700007E04FF0E021096921F004014FF0E02260
:103080001161704710B51C4800684FF4FA51B0FB4D
:10309000F1F4B4F1807F01D3012011E024F07F40EE
:1030A000401E4FF0E02148610F214FF0FF30FFF745
:1030B000CFFA00204FF0E02188610720086100204E
:1030C00008B100BFFEE76FF00400FFF7C7FF0C2157
:1030D0004FF0FF30FFF7BCFA00204FF0E02188618D
:1030E0000846006940F00100086104A001F0BCFA44
:1030F00000F04CFE10BD0000645D0008496E69746C
:1031000069616C697A696E67205379737469636B5E
:10311000202E2E2E20446F6E652E0D0A000000001A
:103120002A48006820B129480068401E27490860E5
:1031300027480068401C2649086008460068B0F52A
:103140007A7F06D30020086022480068401C21498D
:1031500008601F48006820490978B0FBF1F201FBC4
:103160001200072802D101201C4908701848006885
:103170006421B0FBF1F201FB1200212802D10120F1
:1031800017490870124800686421B0FBF1F201FB96
:1031900012002B2802D10120124908700C48006847
:1031A000B0F5FA7F05D102200F49086010200860B1
:1031B0000AE007480068B0F5487F05D102200A49B7
:1031C000091F0860102008607047000014000020EC
:1031D000080000200C000020710000207200002078
:1031E0003A000020510000201408014010B5114899
:1031F000006840F001000F490860084640680E4929
:1032000008400C494860084600680C4908400949D4
:1032100008600846006820F480200860084640687E
:1032200020F4FE0048604FF41F008860FFF7A0FE06
:1032300010BD0000001002400000FFF8FFFFF6FE86
:10324000F0B50C46154600210022068C4FF6FE779D
:103250003E400684018B028C4FF60C7631407E1C7A
:1032600006EA03162E4331437E1E324044F0010627
:10327000324301830284F0BDF0B50C4615460021AF
:1032800000220026078C4FF6EF7C07EA0C07078424
:10329000018B028C4FF6FF7707EA041640F6FF47D2
:1032A00039404FF6FF7707EA033739434FF6FF7788
:1032B00007EA052739434FF6DF773A4046F0100713
:1032C0003A4301830284F0BDF0B50C461546002157
:1032D00000220026078C4FF6FF6C07EA0C070784D4
:1032E000818B028C4FF6FF7707EA04264FF60C77A6
:1032F00039404FF6FF7707EA03172F4339434FF65C
:10330000FF573A4046F480773A4381830284F0BD08
:10331000F0B50C461546002100220026078C4EF61B
:10332000FF7C07EA0C070784818B028C4FF6FF773E
:1033300007EA043640F6FF4739404FF6FF7707EAC1
:10334000052739434FF6FF7707EA033739434DF630
:10335000FF773A4046F480573A4381830284F0BDB8
:1033600000B587B00121C802FFF71EFA01211F48EE
:10337000FEF7EEFB1E4800F02BFB48F69F40ADF831
:1033800010000020ADF8120040F28F10ADF81400CC
:103390000020ADF8160004A9154800F0CFFC60200D
:1033A000ADF800000120ADF802000420ADF80400E3
:1033B0003220ADF80600C820ADF8060069460C487A
:1033C00000F0FEFB60210A4800F080FC0121084863
:1033D00000F0E2FA0121064800F0EAFA05A001F047
:1033E00043F900F0D3FC07B000BD0000C000160098
:1033F000002C0140496E697469616C697A696E6775
:103400002054494D31202E2E2E20446F6E650A0027
:1034100000B587B001210846FFF7A6F9012136481B
:10342000FEF796FB4FF40040ADF8000004208DF845
:10343000030069463148FEF7FFFA0820ADF80000A6
:1034400004208DF8030069462D48FEF7F5FA4FF089
:10345000804000F0BDFA04A800F08EFC0020ADF81A
:1034600010004FF6FF70ADF814000020ADF8160004
:10347000ADF8120004A94FF0804000F05FFC00237B
:103480001A4603214FF0804000F012FB01A800F023
:1034900085FB0020ADF80400ADF806000120ADF872
:1034A00008000020ADF80A000A20ADF80C0001A9C0
:1034B000400700F03CFB0420ADF8040001A9000720
:1034C00000F035FB0121880700F060FA0122114667
:1034D000900700F06CFB00214FF0804000F0FFFBF4
:1034E0000121880700F058FA06A001F0BDF800F0AD
:1034F0004DFC07B000BD00000001180000080140AD
:10350000000C0140496E697469616C697A696E6783
:103510002054494D32202E2E2E20446F6E650D0A08
:103520000000000000B589B001210220FFF71CF95E
:103530000320ADF804008DF8060018208DF8070070
:1035400001A92548FEF778FA244800F041FA17202F
:10355000ADF818000020ADF81A0040F22B10ADF8BD
:103560001C000020ADF81E0006A91C4800F0E6FB78
:103570006020ADF808000120ADF80A000420ADF885
:103580000C000020ADF80E00ADF810000820ADF8DA
:1035900012004001ADF814000020ADF81600ADF89F
:1035A0000E0002A90D4800F00BFB0020ADF80E0044
:1035B00002A90A4800F050FB0121084800F0ECF98C
:1035C0000121064800F0F4F905A001F04DF800F0E3
:1035D000DDFB09B000BD0000000C0140000400400C
:1035E000496E697469616C697A696E672054494DE6
:1035F00033202E2E2E20446F6E652E0D0A00000003
:1036000000B587B001210420FFF7AEF8C020ADF867
:10361000000004208DF8030069462948FEF70CFAE3
:10362000284800F0D5F904A800F0A6FB0020ADF86A
:1036300010004FF6FF70ADF814000020ADF8160032
:10364000ADF8120004A91F4800F078FB00231A46C9
:1036500003211C4800F02CFA01A800F09FFA00207A
:10366000ADF80400ADF806000120ADF80800002018
:10367000ADF80A000A20ADF80C0001A9114800F0CD
:1036800056FA0420ADF8040001A90E4800F04FFAE4
:1036900001210C4800F07AF901221146094800F096
:1036A00086FA0021074800F01AFB0121054800F0C6
:1036B00073F905A000F0D8FF00F068FB07B000BD6B
:1036C000000C014000080040496E697469616C6932
:1036D0007A696E672054494D34202E2E2E20446F77
:1036E0006E652E0D0A00000010B502219F4800F003
:1036F0000DFA012849D19E48007880B99B4800F016
:10370000F8F99C49088099482030008840F0020070
:1037100096492031088001209549087030E094488E
:10372000007801282CD1914800F0E3F992490880F3
:103730008E48203000884FF6FD7108408B492031BB
:10374000088000208A4908708B48008889490988C8
:10375000884206DD8848008886490988401A84B274
:1037600006E084480088404283490988084484B2BE
:10377000B4F5FA6F04DAB4F57A7F01DD7F4804808E
:1037800002217A4800F005F9EEE00421774800F0C4
:10379000BDF9012849D17648407880B9734800F0D6
:1037A000ABF97449488071482030008840F020000F
:1037B0006E492031088001206D49487030E06C4826
:1037C000407801282CD1694800F096F96A49488070
:1037D0006648203000884FF6DF7108406349203189
:1037E00008800020624948706348408861494988E0
:1037F000884206DD604840885E494988401A84B2A4
:1038000006E05C48408840425B494988084484B2ED
:10381000B4F5FA6F04DAB4F57A7F01DD5848048014
:103820000421524800F0B5F89EE008214F4800F00E
:103830006DF9012849D14E48807880B94B4800F095
:103840005EF94C49888049482030008840F4007077
:1038500046492031088001204549887030E04448BD
:10386000807801282CD1414800F049F942498880EC
:103870003E48203000884FF6FF5108403B49203138
:10388000088000203A4988703B48808839498988F7
:10389000884206DD3848808836498988401A84B2D3
:1038A00006E034488088404233498988084484B21D
:1038B000B4F5FA6F04DAB4F57A7F01DD314804809B
:1038C00008212A4800F065F84EE01021274800F052
:1038D0001DF9012848D12648C07880B9234800F056
:1038E00011F92449C88021482030008840F4005054
:1038F0001E492031088001201D49C87030E01C4855
:10390000C07801282CD1194800F0FCF81A49C88069
:103910001648203000884DF6FF71084013492031C9
:10392000088000201249C8701348C0881149C9880E
:10393000884206DD1048C0880E49C988401A84B202
:1039400006E00C48C08840420B49C988084484B24C
:10395000B4F5FA6F04DAB4F57A7F01DD0A48048021
:103960001021024800F015F810BD0000003401409D
:103970002C0000201C00002024000020300000202B
:10398000320000203400002036000020CA430282AA
:103990007047CA430282704721B1028842F0010297
:1039A000028004E0028840F2FE331A400280704731
:1039B00031B1B0F8442042F40042A0F8442005E0C0
:1039C000B0F84420C2F30E02A0F844207047000073
:1039D00010B504462F48844208D10121C014FEF7D7
:1039E000F3FE0021E014FEF7EFFE52E0B4F1804F49
:1039F00008D101210846FEF7C7FE00210120FEF78D
:103A0000C3FE46E02448844208D101210220FEF78B
:103A1000BBFE00210220FEF7B7FE3AE01F488442B9
:103A200008D101210420FEF7AFFE00210420FEF79B
:103A3000ABFE2EE01A48844208D101210820FEF78F
:103A4000A3FE00210820FEF79FFE22E015488442D5
:103A500008D101211020FEF797FE00211020FEF76B
:103A600093FE16E01048844208D101212020FEF781
:103A70008BFE00212020FEF787FE0AE00B488442DF
:103A800007D101214014FEF79FFE00216014FEF7CC
:103A90009BFE10BD002C01400004004000080040C7
:103AA000000C0040001000400014004000340140B1
:103AB000F0B50C4615461E46002100220023018960
:103AC000028B038C4FF6F877394021434FF6FC47C1
:103AD0003A4040F201173A434FF6DD773B404FF64C
:103AE000FF7707EA06172F433B43018102830384D4
:103AF000F0BD0146888E70470146088F7047014629
:103B0000888F70470146B1F84000704730B50246D3
:103B1000002000230024158A05EA0103958905EA9F
:103B2000010413B10CB1012000E0002030BD70B5DC
:103B300005460C46208850B92389A288618828460A
:103B4000FFF77EFBE188284600F0CBF825E02088CF
:103B500004280AD12389A28861882846FFF78CFBB4
:103B6000E188284600F0C6F817E0208808280AD126
:103B70002389A28861882846FFF7A6FBE1882846AA
:103B800000F0C5F809E02389A28861882846FFF77C
:103B9000BFFBE188284600F0C3F870BD002101801A
:103BA0004180012181800021C180018170471AB1CB
:103BB00083890B43838102E083898B438381704730
:103BC00070B5002400220023058C4FF6FF663540B7
:103BD0000584028C8388848B4FF68F752C400D886A
:103BE0002C434FF6FF552A400D894FF6FF7606EA23
:103BF00005252A434D8806EA05252A43CD88858771
:103C0000134DA84202D0134DA8421DD14FF2FF75AB
:103C10002A404D894FF6FF7606EA05252A434FF6DE
:103C2000FF352A408D8806EA05252A4346F6FF75AA
:103C30002B4045F6FF752B408D8906EA05152B4371
:103C4000CD8906EA05152B4383808483028470BDE9
:103C5000002C01400034014070B5002400220023F4
:103C6000058C4EF6FF7635400584028C8388848B64
:103C700048F6FF752C400D884FF6FF7606EA0525BD
:103C80002C434DF6FF752A400D8906EA05352A4377
:103C90004D8806EA05352A43CD88A0F84050094DE5
:103CA000A84202D0084DA84207D1C3F30D038D8965
:103CB0004FF6FF7606EA85152B43838084830284C2
:103CC00070BD0000002C01400034014082884FF696
:103CD0008F731A40828082880A4382807047818471
:103CE0007047028B4FF6F3731A400283028B0A432C
:103CF00002837047028B4FF2FF331A400283028B1C
:103D00004FF6FF7303EA01231A4302837047828B45
:103D10004FF6F3731A408283828B0A438283704783
:103D2000828B4FF2FF331A408283828B4FF6FF73F0
:103D300003EA01231A43828370470000028802F0DD
:103D40008F020280CA884B881A4303881A43028074
:103D50008A8882850A880285054A904202D0054AEF
:103D6000904201D10A7A02860122828270470000C5
:103D7000002C0140003401404FF6FF71818000218A
:103D80000180C180418001727047000010B500249D
:103D900000BF05E00649085D00F06CFB601C84B2C2
:103DA000044800888442F5DB00200249088010BDE9
:103DB000000100203800002010B5002400BF12E0F0
:103DC0001048005D1049114A128888540F48008835
:103DD000401C4FF4FA7190FBF1F201FB12000B4909
:103DE0000880601C84B20A4800888442E8DB002016
:103DF0000749088007480078012801D1FDF70AF932
:103E000010BD000000010020500A002056000020D4
:103E100038000020540000202DE9F05F0024A14666
:103E2000A346A2469548C578807800F00F06022E7A
:103E300001D0002E7ED1914880780609012E01D054
:103E4000002EF7D18D480079672874D008DC472808
:103E500072D050281CD053286FD054286ED106E061
:103E6000702816D073286AD07428F7D100E000BFFC
:103E7000022D00DAFBE0022081498870C8705420CE
:103E8000087155204871AA208871FDF707FFEEE000
:103E900000BF022D00DAEAE078484079532803D0C9
:103EA00076484079732820D1062D00DADFE0734888
:103EB0008479204601F0C4FD002815D06F49C91D42
:103EC000204601F09FFD6F4901EBC4014868FCF7F3
:103ED0007EFB07460B466B4850F834103A466AA002
:103EE00000F0C2FBFFF768FF76E06448407947289E
:103EF00003D062484079672830D1604884792046F1
:103F000001F09EFD002867D002205D4988700620E0
:103F1000C870502008714720487108468471C11D3F
:103F2000204601F03FFDFDF7B9FE564901EBC40103
:103F3000486805E09CE080E07EE04EE096E04DE0E1
:103F4000FCF745FB07460B464E4850F834103A46FE
:103F500053A000F089FBFFF72FFF3DE04748407971
:103F6000502803D045484079702802D101F084FDE3
:103F700032E042484079522803D0404840797228C4
:103F800009D1002001F01EFE0E214BA000F06CFBB9
:103F9000FFF712FF20E0394840794C2803D037481A
:103FA00040796C2808D101F0E9FD0E214CA000F009
:103FB0005BFBFFF701FF0FE030484079412803D059
:103FC0002E484079612807D101F028FE0E214EA02D
:103FD00000F04AFBFFF7F0FE49E000BF042D00DAD5
:103FE00045E026484479C0792449897940EA01208E
:103FF0000FFA80FB2148007A4FFA80F90E2C1ADA6A
:104000004946584601F03EFE82461E4800EBC40079
:10401000C0F804A01B4901EBC4014868FCF7D7FABB
:1040200007460B46174850F834103A463FA000F0B8
:104030001BFBFFF7C1FE00BF00BF022D00DA16E038
:104040000E4844790E2C10DA0E4901EBC401486881
:10405000FCF7BDFA07460B460A4850F834103A46BA
:1040600036A000F001FBFFF7A7FE00E000BF00BF95
:104070000020364908700120BDE8F09FF80C0020B0
:10408000320A002014130020506172616D73207396
:104090006574202573203D2025663A0D0A00000036
:1040A000506172616D7320676574202573203D2017
:1040B00025663A0D0A000000526573657420706130
:1040C00072616D7320746F2064656661756C742C09
:1040D0002073697A65203D2025642E0D0A000000BA
:1040E0004C6F616420706172616D732066726F6DD8
:1040F00020666C6173682C2073697A65203D2025E9
:10410000642E0D0A00000000536176652070617214
:10411000616D7320746F20666C6173682C20736905
:104120007A65203D2025642E0D0A00002053657419
:10413000202573203D2025660D0A00002047657468
:10414000202573203D2025660D0A00005E0000201A
:1041500000B587B001218803FEF726FB4FF40070FD
:10416000ADF8000003208DF8020018208DF8030040
:1041700069462548FDF760FC4FF48060ADF800000B
:1041800003208DF8020004208DF8030069461E48C4
:10419000FDF752FC4FF4613003900020ADF81000A1
:1041A000ADF81200ADF81400ADF818000C20ADF811
:1041B00016000020ADF80400ADF806004FF40070C2
:1041C000ADF808000020ADF80A0003A90F4800F080
:1041D000F5F901A90D4800F06EF9012280210B4884
:1041E00000F086F9012240F22551084800F0C0F99C
:1041F0000121064800F070F905A000F035FAFFF73C
:10420000C5FD07B000BD00000008014000380140B6
:10421000496E697469616C697A696E6720555341AA
:10422000525431202E2E2E20446F6E652E0D0A0022
:1042300010B5002440F22551084800F06FF930B164
:10424000064800F00BFAC4B2204601F03FFA40F2F3
:104250002551024800F020F910BD0000003801404F
:1042600000B587B001214804FEF77EFA0420ADF8BE
:10427000000003208DF8020018208DF80300694625
:104280002448FDF7D9FB0820ADF8000003208DF885
:10429000020004208DF8030069461E48FDF7CCFBA0
:1042A0004FF4E13003900020ADF81000ADF812009B
:1042B000ADF81400ADF818000C20ADF81600002081
:1042C000ADF80400ADF806004FF40070ADF808003A
:1042D0000020ADF80A0003A90F4800F06FF901A90A
:1042E0000D4800F0E8F8012280210B4800F000F9A9
:1042F000012240F22551084800F03AF90121064810
:1043000000F0EAF805A000F0AFF9FFF73FFD07B0B5
:1043100000BD00000008014000440040496E69747F
:1043200069616C697A696E67205553415254322035
:104330002E2E2E20446F6E652E0D0A0010B500241F
:1043400040F22551444800F0E9F800287DD0424869
:1043500000F084F9C4B241480078042843DAA52C5F
:104360000CD13E48007848B93D483C49097844544E
:104370003A480078401C3949087066E05A2C0DD143
:1043800036480078012809D1354834490978445421
:1043900032480078401C3149087056E02F480078B8
:1043A000022809D12E482D49097844542B48007819
:1043B000401C2A49087048E0402C10DC274800784F
:1043C00003280CD1A01D27490870254823490978E6
:1043D000445422480078401C2049087035E00020F1
:1043E0001E49087031E01D4800781E49097888424E
:1043F0002BDA1B4819490978445418480078401CA6
:1044000016490870084600781649097888421CDB6E
:1044100015480078B0B9002405E01148005D134943
:104420000855601CC4B20D4800788442F5DB0B4887
:1044300000780D49087000200849087001200C49D7
:10444000087002E000200549087040F2255102483A
:1044500000F022F810BD0000004400405C00002085
:10446000DA0C0020B40000205E000020F80C0020D0
:104470005D00002010B50446C4F30800054908801B
:1044800000BF80210348001F00F03BF80028F8D04F
:1044900010BD00000444004010B50022002340F687
:1044A0006A14A14200D100BF0A1201249440A3B2B1
:1044B000DC43048010BD10B502460020108A4FF284
:1044C000FF0318400B884C8823438C882343CC88F7
:1044D00023431843108210BD21B1828942F4005257
:1044E000828104E082894DF6FF731A408281704711
:1044F0001AB1838A0B43838202E0838A8B438382CF
:10450000704702460020B1F5007F00D100BF13883C
:104510000B400BB1012000E00020704770B502464F
:10452000002400230025002040F66A16B14200D185
:1045300000BFC1F3421501F01F03012606FA03F381
:10454000012D02D19689334006E0022D02D1168A50
:10455000334001E0968A33400C12012606FA04F437
:104560001688344013B10CB1012000E0002070BD6A
:10457000F0B50346002400260025002040F66A1707
:10458000B94200D100BF1846C1F3421401F01F0622
:10459000012707FA06F5012C01D10C3004E0022CAA
:1045A00001D1103000E014301AB107682F430760C2
:1045B00002E00768AF430760F0BD00002DE9F04757
:1045C00086B005460E460024A24600BF00BF002765
:1045D000B08900B100BF2F462C8A4CF6FF70044012
:1045E000F08804432C82AC894EF6F3100440B08866
:1045F00031890843718908430443AC81AC8A4FF682
:10460000FF400440B0890443AC8201A8FEF74CF996
:104610001148874202D1DDF810A001E0DDF80CA0BE
:104620000AEBCA0000EB0A1031688900B0FBF1F810
:104630006420B8FBF0F004012009642101FB10891B
:10464000322000EB0910B0FBF1F000F00F00044342
:104650002C8106B0BDE8F08700380140014688880B
:10466000C0F30800704700000FB4054B10B503A954
:10467000044A029800F0CAF810BC5DF814FB000070
:1046800075560008D400002002E008C8121F08C1B7
:10469000002AFAD170477047002001E001C1121FC3
:1046A000002AFBD1704700002DE9FF5FDDE9022001
:1046B000010DDDF838B0024318D044F61050A1F2D5
:1046C000FF3141430D140F98012820D0A5EB0B00BA
:1046D000401C5FEA000A4FF00004474EDFF81C91CF
:1046E000A046504616D5CAF1000728E00F980124CD
:1046F00043A2012808D0002100980F9BC0E90021A7
:10470000C0E90243BDE8FF9F6FEA0B01F4E7CBF17C
:104710000000DEE7074612E0F80707D022463346DE
:1047200040464946FCF7B8F880468946224633465B
:1047300010461946FCF7B0F804460E467F10002FCD
:10474000EAD1DDE90201BAF1000F42464B4602DA36
:10475000FCF7A2F801E0FBF79CFE04460E4600229F
:10476000284BFBF75BFF03D84FF0FF30014607E013
:104770000022254B20463146FBF7E4FDFCF7FEF80E
:10478000102409E0002C0ADB0A220023FBF7A0FF1B
:10479000019B30321A55641E50EA0102F2D1641CAA
:1047A000019AC4F1110314440F9A012A03D0012283
:1047B00008430DD10AE0084304D000204FF0110B4C
:1047C0000F9080E7A3EB0B056D1E0DE05B4504DD4C
:1047D0004FF0000205F1010504E003DA4FF000029A
:1047E000A5F10105002AECD000980F99C0E902312B
:1047F000C0E9004586E70000000024400000F03FCB
:10480000300000000000F0430000E03F2DE9FF4FC2
:1048100095B09B468946064600250FE2252877D1AC
:1048200000242746F84A0121059400E0044316F8C5
:10483000013F203B01FA03F01042F7D130782A28DB
:1048400011D06FF02F033078A0F13002092A16D86A
:10485000059A44F0020402EB820203EB4202104488
:10486000761C0590EFE759F8042B0592002A03DA2D
:10487000504244F40054059044F00204761C307811
:104880002E2816D116F8010F44F004042A280DD062
:104890006FF02F023078A0F13003092B09D807EB15
:1048A000870302EB4303C718761CF3E759F8047B30
:1048B000761C30786C280FD006DC4C2817D068287E
:1048C0000DD06A2814D104E0742810D07A280FD1B2
:1048D0000DE044F400140AE044F4801401E044F4D0
:1048E00040147278824202D104F58014761C761C42
:1048F000307866280BD013DC582877D009DC0028E4
:1049000075D04528F6D04628F4D047281AD19DE125
:1049100018E0632835D0642879D0652812D195E154
:10492000702873D008DC6728F1D069286FD06E2812
:104930000DD06F2806D1B5E073282CD0752875D01E
:10494000782874D05A46179990476D1C75E1C4F3C6
:104950000250022809D003280DD0D9F800100428ED
:104960000DD00D6009F1040967E1D9F80010EA17CC
:10497000C1E90052F6E7D9F800100D80F2E70D709A
:10498000F0E719F8041B8DF8001000208DF80100E5
:10499000EA46012003E059F804AB4FF0FF3061070D
:1049A0004FF0000102D40DE008F101018846B94240
:1049B0000FDA8045F8DB1AF808100029F4D108E076
:1049C00008F1010188468142FADB1AF80810002933
:1049D000F6D105985B46A0EB080721463846179AA2
:1049E00000F094FA284400EB080507E04DE029E1C7
:1049F0000DE01AF8010B5A4617999047B8F10108D3
:104A0000F7D25B4621463846179A13E142E00A2264
:104A10000092C4F302524FF0000A022A08D059F85B
:104A200004CB032A4FEAEC710AD00DE029E02AE01A
:104A300009F1070121F00702F2E802C1914609E0FD
:104A40000FFA8CFC4FEAEC71042A03D14FFA8CFC6C
:104A50004FEAEC71002907DA0A460021DCF1000C6C
:104A600061EB02012D2202E0220504D52B228DF8F4
:104A70000420012203E0E20701D02022F7E790465C
:104A800059E00A2102E010220DE010214FF0000A47
:104A900000910BE010224FF0000A44F004040827B4
:104AA000009203E008224FF0000A0092C4F3025281
:104AB000022A05D059F804CB0021032A08D009E0C6
:104AC00009F1070121F00702F2E802C1914605E071
:104AD0001FFA8CFC042A01D10CF0FF0C4FF00008E7
:104AE000220728D5702806D0009B83F0100353EAD4
:104AF0000A0305D00EE040228DF80420012208E0D0
:104B00005CEA010206D030228DF804208DF8050001
:104B100002229046009B83F0080353EA0A030AD15D
:104B20005CEA010201D1620705D530228DF804202C
:104B30004FF001087F1E582804D034A003900EA81F
:104B400002900DE036A0F9E753466046009AFBF765
:104B5000BFFD84460398825C0298401E029002705A
:104B60005CEA0100F0D1029806A9081A00F1200AB7
:104B7000600702D524F4803400E00127574502DDA8
:104B8000A7EB0A0000E0002000EB0A010090059866
:104B90004144401A0590E00306D45B462146179A2B
:104BA000059800F0B3F90544002706E001A85A462D
:104BB000C05D179990476D1C7F1C4745F6DBE003ED
:104BC0000CD55B462146179A059800F09FF90544DD
:104BD00004E030205A46179990476D1C0099481EF2
:104BE00000900029F5DC08E0029802995A46007806
:104BF000491C0291179990476D1CBAF10001AAF166
:104C0000010AF1DC65E1000009280100303132338E
:104C100034353637383961626364656600000000F8
:104C200030313233343536373839414243444546E2
:104C30000000000000F058F90544761C3078002888
:104C40007FF4ECAD19B02846BDE8F08F620700D4C0
:104C5000062709F1070222F0070CFCE80223E146CF
:104C600003F000485FEA080C02D00FF2702C0DE050
:104C70005FEA045C02D50FF2682C07E05FEAC47CAF
:104C800002D00FF2602C01E0AFF2700C4FF0FF3851
:104C900023F00043CDF850C065280CD006DC452831
:104CA00009D046281DD047283DD13DE0662818D0C0
:104CB00067287ED138E00021112F01DB112000E0B0
:104CC000781CCDE9000106A90EA8FFF7EDFCDDE98F
:104CD0000F010E9A03910021009207F1010A04913D
:104CE0004DE04FF000400097CDE9011006A90EA855
:104CF000FFF7DAFCDDE90F0203920E9B1199002207
:104D0000DDF80CA00093049211B9791C00EB010AA4
:104D1000B7EB0A0004D4C0F1FF3007F1010A049098
:104D2000AAEB0700019044E0012F00DA01270021DF
:104D3000112F01DD112000E03846CDE9000106A960
:104D40000EA8FFF7B1FCDDE90F010E9A03910021D7
:104D500004910092BA4621070CD40399514500DA18
:104D60008A46BAF1010F05DD009AAAF10101515CF2
:104D7000302908D0B84202DA10F1040F06DA012116
:104D8000CDE9011015E0AAF10101E9E7002805DCF1
:104D9000049901440491AAEB000102E0411C514531
:104DA00000DD8A460499401A401C01904FF00040F3
:104DB0000290200704D40198504501DBCDF804800F
:104DC00000208DF84F0002980DF14F07B0F1004F11
:104DD00025D02B200E9002984FF0020800280CDA04
:104DE000404202902D200E9007E00A210298FBF726
:104DF00059FC3031029007F8011DB8F10001A8F10B
:104E00000108F2DC02980028EFD1791E0E98087094
:104E1000307800F0200040F0450007F8020D12A89D
:104E2000C01B00F107081498007800B1012000EBC6
:104E30000A01019801EBE07105984144401A401EB7
:104E40000590E00306D45B462146179A059800F0CA
:104E50005DF805441498007818B15A4617999047A0
:104E60006D1CE00324D55B462146179A059800F097
:104E70004DF805441CE00498002807DBDDE9030138
:104E8000884203DD0098405C179901E017993020B3
:104E90005A469047049805F10105401C049001987A
:104EA000401E019004D12E205A46179990476D1C40
:104EB000BAF10001AAF1010ADDDC05E017F8010BE7
:104EC0005A46179990476D1CB8F10001A8F10108E6
:104ED000F4DC5B462146179A0598ABE62D000000EE
:104EE0002B000000200000002DE9F04104460025C1
:104EF0001E461746880404D405E039462020B047F2
:104F00006D1C641EF9D52846BDE8F0812DE9F041FD
:104F1000044600251E469046C80301D5302700E010
:104F20002027880404D505E041463846B0476D1C6B
:104F3000641EF9D52846BDE8F08118B504468DF801
:104F400000408DF801108DF802208DF80330009894
:104F500018BD00002DE9FC47CA4800780D284ED145
:104F6000C94840784D284AD1C7488078532846D14F
:104F7000C54DAB796A792979E878FFF7DEFFC34937
:104F80000860AB7A6A7A297AE879FFF7D6FFBF49D9
:104F9000486001F1200000F081FBBC4A9168106874
:104FA000FBF776FB04D2B9488068B849086009E08D
:104FB000B64AD1681068FBF761FB03D2B348C068FA
:104FC000B2490860B14A91685068FBF761FB04D2AE
:104FD000AE488068AD49486009E0AC4AD168506885
:104FE000FBF74CFB03D2A948C068A8494860A84811
:104FF0000168A8A0FFF738FBFEF7DEFE3BE1A14801
:105000000078072817D1A0484078422813D19E483D
:1050100080784B280FD19C4A1179D07800F058FE47
:1050200099480379C2789A4801689DA0FFF71CFB54
:10503000FEF7C2FE1FE1934800780A281CD192486F
:105040004078532818D190488078502814D18E4841
:10505000C4780E2C0FDA0546EB79AA79697928799C
:10506000FFF76BFF8146934951F83400494600F041
:10507000EFFC00F0D3FDFEE082480078062814D152
:1050800081484078472810D17F48807850280CD13B
:105090007D48C4780E2C07DA864800EBC400D0F8AF
:1050A00004904846FDF716FFE5E0764800780928A9
:1050B00027D175484078502823D1734880785028EC
:1050C0001FD114227C497D48FBF754F86E4DAB7913
:1050D0006A792979E878FFF730FF78490860142267
:1050E0007548FBF747F81422744973483C30FBF7C6
:1050F00041F87248016872A000F0AAFC00F08EFD31
:10510000B9E060480078092835D15F4840785028D8
:1051100031D15D48807849282DD1142266496748ED
:10512000FBF728F8584DAB796A792979E878FFF7C9
:1051300004FF6249486014225F48FBF71BF8142201
:105140005E495D483C30FBF715F85C48416860A05B
:1051500000F07EFC00F062FD58494868FBF737FA22
:1051600005462A460B46474801785DA0FFF77CFAC2
:10517000FEF722FE7FE043480078092835D14248F7
:105180004078502831D14048807844282DD11422CD
:1051900049494A48FAF7EEFF3B4DAB796A792979DC
:1051A000E878FFF7CAFE4549886014224248FAF7BA
:1051B000E1FF1422414940483C30FAF7DBFF3F4809
:1051C00081684BA000F044FC00F028FD3B49886852
:1051D000FBF7FDF905462A460B462A48017848A008
:1051E000FFF742FAFEF7E8FD45E026480078092877
:1051F00041D12548407850283DD123488078432824
:1052000039D114222C492D48FAF7B4FF1E4DAB7941
:105210006A792979E878FFF790FE2849C86008463E
:10522000C06880F00040086114222348FAF7A2FF0A
:105230001422224920483C30FAF79CFF1F48C168DD
:1052400033A000F005FC00F0E9FC1C490869FBF7FD
:10525000BEF905460E461949C868FBF7B8F9074676
:105260003A460B460748CDE9005601782DA0FFF7D6
:10527000FBF9FEF7A1FD0020024908700120BDE8FE
:10528000FC870000500000201E0800205012002063
:1052900008000020204D53203D2025640D0A000009
:1052A00020424B20256420736574202564203D2016
:1052B00025640A0014130020B012002038120020C8
:1052C00076656C6F636974795F7069645F70000004
:1052D00076656C6F636974795F7069645F690000FB
:1052E0002050492025643A2069203D2025660A0087
:1052F00076656C6F636974795F7069645F640000E0
:105300002050442025643A2064203D2025660A0070
:1053100076656C6F636974795F7069645F636C61F3
:105320006D7000002050432025643A20695F6D6154
:1053300078203D2025662C20695F6D696E203D2018
:105340002566200A00000000B0F90010002920DBCB
:10535000B0F90210B0F90020891AB0F90620914284
:1053600005DD0188C288114409B2018031E0B0F93D
:105370000010B0F90220891AB0F90820914205DD29
:1053800001880289891A09B2018022E041880180DE
:105390001FE0B0F90010B0F90220891AB0F9062018
:1053A000914205DD0188C288891A09B2018010E0A6
:1053B000B0F90210B0F90020891AB0F90820914222
:1053C00005DD01880289114409B2018001E04188AC
:1053D0000180B0F90010B0F90C20914202DD818902
:1053E000018007E0B0F90010B0F90A20914201DA1B
:1053F00041890180704700002DE9F05F04460D46A9
:10540000164600213046FBF739F911D92846FBF73B
:10541000DEF8074600222F4BFBF700F908D3284699
:10542000FBF7D5F8074600222B4BFBF7E3F801D238
:10543000BDE8F09FA56128466169FAF70DFF0746B0
:105440003146FAF741FF20626561206AFBF7BFF839
:10545000074600221F4BFBF7E1F808D3206AFBF751
:10546000B6F8074600221C4BFBF7C4F800D2DFE772
:10547000A1692068FAF7F6FE82463046A169FAF77C
:10548000F1FE0746E169FAF795FEE061E1696068BF
:10549000FAF7E8FE81464846E168FBF7F9F801D2E1
:1054A000D4F80C9048462169FBF7E8F801D2D4F80B
:1054B0001090216AA068FAF7D5FE83464946504607
:1054C000FAF778FE07465946FAF774FE606200BFA5
:1054D000AEE7000065CDCD4165CDCDC10246531A82
:1054E00018B242F21073984201DD00B203E0024BA1
:1054F000984200DA00B27047F0D8FFFF2DE9F04182
:105500000446A1896089FFF7E9FF06466089A0810A
:105510003046FBF72DF880461849FAF7A3FE0546FA
:105520002169FAF7D1FE6060D4E90001FAF794FE30
:105530000746394604F114002269FFF75DFFB4F90C
:105540000800FBF715F88046A16BFAF733FE054615
:10555000FBF724F800B22081B4F90800B0F5967F7B
:1055600002DD4FF496702081B4F9080010F5967FA3
:1055700002DA4FF6D4602081BDE8F081A7FA033B40
:1055800008B500200090FF20009002E00098401E27
:10559000009000980028F9D108BD00002DE9FC5FBB
:1055A00004460D4620682968A0EB01096068696817
:1055B000884207D20F49606808446968461AA9F111
:1055C000010902E060686968461A3046FAF7D9FFB7
:1055D00007460022084BFAF75CFF82468B46484696
:1055E000FAF7CFFF52465B46CDE90001FAF7AAFE73
:1055F000BDE8FC9F40420F0080842E412DE9FF5FF3
:10560000044689462068D9F80010A0EB010B6068B9
:10561000D9F80410884209D2144960680844D9F8BE
:105620000410A0EB010AABF1010B04E06068D9F8AB
:105630000410A0EB010A5046FAF7A3FF0746002228
:105640000B4BFAF726FF05460E465846FAF799FF28
:105650002A463346CDE90001FAF774FECDE902018E
:10566000FAF7F0FF04B0BDE8F09F000040420F00E1
:1056700080842E4110B5074A1288B2F5FA7F08DA05
:10568000054B044C24881855024A1288521C014BC1
:105690001A8010BD38000020000100204FF0E022E9
:1056A00092690923B2FBF3F291B2064A126802EB47
:1056B0004203C3EBC21201EBC2024260024A12680B
:1056C00002607047080000200C0000200749084ACB
:1056D0001288885406490988491C4FF4FA7291FBD4
:1056E000F2F302FB1311024A118070470A060020F0
:1056F0004A00002070B5DDE9044501604260836026
:10570000C4600561002646618661C6610662466224
:1057100070BD000008B500200090FCF701FB2AA036
:10572000FEF7A2FF33A0FEF79FFF27A0FEF79CFF26
:10573000FEF72CFB46E03C480078012804D1FCF73A
:105740009FFD0020384908703848006801281FD1A3
:105750000020364908603649098888B2FCF735FAD6
:10576000344908803249898888B2FCF72DFA3249D9
:1057700008802F49098988B2FDF7D0FA2F4A1268AC
:10578000C2F340212D4A1268C2F30020FDF70CFB42
:10579000684600F059F818B19DF80000FDF79AF935
:1057A00027480078012804D1FEF736FB0020244961
:1057B000087024480078012804D1FCF767FF002016
:1057C00020490870B7E700002F2A2A2A2A2A2A2A05
:1057D0002A2A2A2A2A2A2A2A2A2A2A2A2A2A2A2A29
:1057E0002A2A2A2A2A2A2A2A2A2A2A2A2A2A2A2A19
:1057F0002F0D0A005243543620526F626F742043BB
:105800006F6E74726F6C20426F6172642053696DA9
:10581000706C652056657273696F6E2C2076312E20
:10582000302E0D0A00000000720000201800002039
:10583000F00000200000002002000020080C0140C1
:105840005D0000205100002001460D4800880D4AEF
:105850001288904201D1002070470B48094A1288F3
:10586000805C087007480088401C4FF4FA7290FB77
:10587000F2F302FB1300034A10800120ECE7000062
:105880004A0000204C0000200A0600203848B0F9E9
:1058900000003749B1F90E1088420DDD3448008808
:1058A00034490880042034490861082048613048A0
:1058B00000882F49888022E02D48B0F900002C494B
:1058C000B1F90E10494288420EDA29480088404258
:1058D0002849088004202849486108200861244894
:1058E0000088234988800AE000202249088004209B
:1058F000214948610820486100201D4988801C48D2
:10590000B0F91210B0F9200081420DDD1848408A2C
:105910001849091D08801020174908612020486196
:105920001348418AC18222E01148B0F91210B0F93F
:105930002000404281420EDA0D48408A40420D4923
:10594000091D088010200C49486120200861084882
:10595000418AC1820BE000200649091D0880102001
:10596000054948612020486100210148C1827047F3
:10597000781200203C0400400010014070B505463C
:10598000002408E0064850F824102846FAF704FCE2
:1059900000B902E0641C0E2CF4D300BF204670BD99
:1059A0007C00002002460E2A01DB002070470B48D5
:1059B00000EBC20000790870084800EBC200407993
:1059C0004870064800EBC20080798870034800EBFD
:1059D000C200C079C8700120E8E70000141300205D
:1059E00070B506460C463046FFF7C8FF05460E2D3B
:1059F00004D2034800EBC500406870BD2046FCE7B8
:105A00001413002002460E2A01DB0020704708789C
:105A10000A4B03EBC20318714B78084800EBC20035
:105A200043718B78054800EBC2008371CB78034843
:105A300000EBC200C3710120E8E70000141300204E
:105A400001460E2901DA012070470020FCE7000022
:105A500070B506460C463046FFF790FF05460E2D02
:105A600005D2044800EBC5004460012070BD002051
:105A7000FCE70000141300207CB500240E210EA0CA
:105A8000FEF7F2FDFEF782F900BF11E0114901EBCC
:105A9000C4014868FAF79BFDCDE900010D4850F8B4
:105AA000342021460CA0FEF7DFFDFEF76FF9641CE1
:105AB0000E2CEBD37CBD0000506172616D73206CC5
:105AC0006973742C2073697A65203D2025643A0D32
:105AD0000A000000141300202020202D25643A2005
